{
  "abi": [
    {
      "inputs": [
        {
          "internalType": "bytes",
          "name": "data",
          "type": "bytes"
        },
        {
          "internalType": "uint256",
          "name": "start",
          "type": "uint256"
        },
        {
          "internalType": "uint256",
          "name": "end",
          "type": "uint256"
        }
      ],
      "name": "Slice_OutOfBounds",
      "type": "error"
    },
    {
      "anonymous": false,
      "inputs": [
        {
          "indexed": true,
          "internalType": "ResourceId",
          "name": "tableId",
          "type": "bytes32"
        },
        {
          "indexed": false,
          "internalType": "bytes32[]",
          "name": "keyTuple",
          "type": "bytes32[]"
        }
      ],
      "name": "Store_DeleteRecord",
      "type": "event"
    },
    {
      "anonymous": false,
      "inputs": [
        {
          "indexed": true,
          "internalType": "ResourceId",
          "name": "tableId",
          "type": "bytes32"
        },
        {
          "indexed": false,
          "internalType": "bytes32[]",
          "name": "keyTuple",
          "type": "bytes32[]"
        },
        {
          "indexed": false,
          "internalType": "bytes",
          "name": "staticData",
          "type": "bytes"
        },
        {
          "indexed": false,
          "internalType": "PackedCounter",
          "name": "encodedLengths",
          "type": "bytes32"
        },
        {
          "indexed": false,
          "internalType": "bytes",
          "name": "dynamicData",
          "type": "bytes"
        }
      ],
      "name": "Store_SetRecord",
      "type": "event"
    },
    {
      "anonymous": false,
      "inputs": [
        {
          "indexed": true,
          "internalType": "ResourceId",
          "name": "tableId",
          "type": "bytes32"
        },
        {
          "indexed": false,
          "internalType": "bytes32[]",
          "name": "keyTuple",
          "type": "bytes32[]"
        },
        {
          "indexed": false,
          "internalType": "uint48",
          "name": "start",
          "type": "uint48"
        },
        {
          "indexed": false,
          "internalType": "bytes",
          "name": "data",
          "type": "bytes"
        }
      ],
      "name": "Store_SpliceStaticData",
      "type": "event"
    },
    {
      "inputs": [],
      "name": "_msgSender",
      "outputs": [
        {
          "internalType": "address",
          "name": "sender",
          "type": "address"
        }
      ],
      "stateMutability": "view",
      "type": "function"
    },
    {
      "inputs": [],
      "name": "_msgValue",
      "outputs": [
        {
          "internalType": "uint256",
          "name": "value",
          "type": "uint256"
        }
      ],
      "stateMutability": "pure",
      "type": "function"
    },
    {
      "inputs": [],
      "name": "_world",
      "outputs": [
        {
          "internalType": "address",
          "name": "",
          "type": "address"
        }
      ],
      "stateMutability": "view",
      "type": "function"
    },
    {
      "inputs": [
        {
          "internalType": "address",
          "name": "player",
          "type": "address"
        },
        {
          "internalType": "uint256",
          "name": "x",
          "type": "uint256"
        },
        {
          "internalType": "uint256",
          "name": "y",
          "type": "uint256"
        }
      ],
      "name": "addPlayer",
      "outputs": [],
      "stateMutability": "nonpayable",
      "type": "function"
    },
    {
      "inputs": [
        {
          "internalType": "string",
          "name": "description",
          "type": "string"
        }
      ],
      "name": "addTask",
      "outputs": [
        {
          "internalType": "bytes32",
          "name": "key",
          "type": "bytes32"
        }
      ],
      "stateMutability": "nonpayable",
      "type": "function"
    },
    {
      "inputs": [
        {
          "internalType": "address",
          "name": "player",
          "type": "address"
        }
      ],
      "name": "capturePlayer",
      "outputs": [],
      "stateMutability": "nonpayable",
      "type": "function"
    },
    {
      "inputs": [
        {
          "internalType": "bytes32",
          "name": "key",
          "type": "bytes32"
        }
      ],
      "name": "completeTask",
      "outputs": [],
      "stateMutability": "nonpayable",
      "type": "function"
    },
    {
      "inputs": [
        {
          "internalType": "bytes32",
          "name": "key",
          "type": "bytes32"
        }
      ],
      "name": "deleteTask",
      "outputs": [],
      "stateMutability": "nonpayable",
      "type": "function"
    },
    {
      "inputs": [
        {
          "internalType": "address",
          "name": "player",
          "type": "address"
        }
      ],
      "name": "getPlayer",
      "outputs": [
        {
          "components": [
            {
              "internalType": "uint256",
              "name": "x",
              "type": "uint256"
            },
            {
              "internalType": "uint256",
              "name": "y",
              "type": "uint256"
            },
            {
              "internalType": "uint256",
              "name": "status",
              "type": "uint256"
            }
          ],
          "internalType": "struct PlayersData",
          "name": "playerdata",
          "type": "tuple"
        }
      ],
      "stateMutability": "view",
      "type": "function"
    },
    {
      "inputs": [
        {
          "internalType": "address",
          "name": "player",
          "type": "address"
        },
        {
          "internalType": "uint256",
          "name": "dx",
          "type": "uint256"
        },
        {
          "internalType": "uint256",
          "name": "dy",
          "type": "uint256"
        }
      ],
      "name": "movePlayer",
      "outputs": [],
      "stateMutability": "nonpayable",
      "type": "function"
    },
    {
      "inputs": [
        {
          "internalType": "bytes32",
          "name": "key",
          "type": "bytes32"
        }
      ],
      "name": "resetTask",
      "outputs": [],
      "stateMutability": "nonpayable",
      "type": "function"
    },
    {
      "inputs": [
        {
          "internalType": "bytes4",
          "name": "interfaceId",
          "type": "bytes4"
        }
      ],
      "name": "supportsInterface",
      "outputs": [
        {
          "internalType": "bool",
          "name": "",
          "type": "bool"
        }
      ],
      "stateMutability": "pure",
      "type": "function"
    },
    {
      "inputs": [
        {
          "internalType": "address",
          "name": "player",
          "type": "address"
        }
      ],
      "name": "uncapturePlayer",
      "outputs": [],
      "stateMutability": "nonpayable",
      "type": "function"
    }
  ],
  "bytecode": {
    "object": "0x608060405234801561001057600080fd5b50612807806100206000396000f3fe608060405234801561001057600080fd5b50600436106100df5760003560e01c80635c12cd4b1161008c578063c01e38e611610066578063c01e38e6146101d7578063e1af802c146101ea578063e64f15a2146101f2578063ec5c29ce1461020557600080fd5b80635c12cd4b1461017c57806367238562146101b15780637c0390f7146101c457600080fd5b80631b24c237116100bd5780631b24c237146101415780633781c50a1461015457806345ec93541461016757600080fd5b806301ffc9a7146100e4578063119df25f1461010c578063147ceab41461012c575b600080fd5b6100f76100f23660046120fc565b610218565b60405190151581526020015b60405180910390f35b6101146102b1565b6040516001600160a01b039091168152602001610103565b61013f61013a366004612155565b6102c0565b005b61013f61014f366004612170565b6102fe565b61013f610162366004612155565b610368565b36601f1901355b604051908152602001610103565b61018f61018a366004612155565b6103a2565b6040805182518152602080840151908201529181015190820152606001610103565b61016e6101bf366004612212565b610405565b61013f6101d2366004612292565b610465565b61013f6101e5366004612170565b610472565b6101146104ae565b61013f610200366004612292565b6104b8565b61013f610213366004612292565b6104c1565b60007fffffffff0000000000000000000000000000000000000000000000000000000082167fb42128800000000000000000000000000000000000000000000000000000000014806102ab57507fffffffff0000000000000000000000000000000000000000000000000000000082167f01ffc9a700000000000000000000000000000000000000000000000000000000145b92915050565b60006102bb6104cc565b905090565b604080516001600160a01b0383166020820152600091016040516020818303038152906040528051906020012090506102fa8160016104fe565b5050565b604080516001600160a01b038516602082015260009101604051602081830303815290604052805190602001209050610336816105d3565b600103610362576103628160405180606001604052808681526020018581526020016001815250610693565b50505050565b604080516001600160a01b0383166020820152600091016040516020818303038152906040528051906020012090506102fa8160026104fe565b6103c660405180606001604052806000815260200160008152602001600081525090565b604080516001600160a01b0384166020820152600091016040516020818303038152906040528051906020012090506103fe81610764565b9392505050565b6000446104106102b1565b83604051602001610423939291906122fb565b604051602081830303815290604052805190602001209050610460816040518060600160405280428152602001600081526020018581525061085a565b919050565b61046f8142610933565b50565b604080516001600160a01b0385166020820152600091016040516020818303038152906040528051906020012090506103628184846001610a19565b60006102bb610ac5565b61046f81610aff565b61046f816000610933565b7fffffffffffffffffffffffffffffffffffffffffffffffffffffffffffffffcc36013560601c806104fb5750335b90565b60408051600180825281830190925260009160208083019080368337019050509050828160008151811061053457610534612323565b60209081029190910181019190915260408051613a3160f11b818401526000602282015266506c617965727360c81b603082015281518082039093018352810190526105ce9061058390612339565b8260028560405160200161059991815260200190565b60408051601f198184030181529190527e60030020202000000000000000000000000000000000000000000000000000610ba0565b505050565b60408051600180825281830190925260009182919060208083019080368337019050509050828160008151811061060c5761060c612323565b60209081029190910181019190915260408051613a3160f11b9281019290925260006022830181905266506c617965727360c81b60308401529161068b910160405160208183030381529060405261066390612339565b8360027e60030020202000000000000000000000000000000000000000000000000000610c55565b949350505050565b80516020808301516040808501518151808501959095528482019290925260608085019290925280518085038301815260016080860181815260c0870190935290946000948593929160a001908036833701905050905085816000815181106106fe576106fe612323565b60209081029190910181019190915260408051613a3160f11b928101929092526000602283015266506c617965727360c81b603083015261075c91015b60405160208183030381529060405261075390612339565b82868686610d12565b505050505050565b61078860405180606001604052806000815260200160008152602001600081525090565b6040805160018082528183019092526000916020808301908036833701905050905082816000815181106107be576107be612323565b60209081029190910181019190915260408051613a3160f11b9281019290925260006022830181905266506c617965727360c81b6030840152918291829161083f910160405160208183030381529060405261081990612339565b857e60030020202000000000000000000000000000000000000000000000000000610d88565b925092509250610850838383610e58565b9695505050505050565b8051602080830151604080519283019390935281830152815180820383018152606090910190915260006108918360400151610e9e565b905060006108a28460400151610eae565b604080516001808252818301909252919250600091906020808301908036833701905050905085816000815181106108dc576108dc612323565b60209081029190910181019190915260408051613a3160f11b92810192909252600060228301527f5461736b73000000000000000000000000000000000000000000000000000000603083015261075c910161073b565b60408051600180825281830190925260009160208083019080368337019050509050828160008151811061096957610969612323565b60209081029190910181019190915260408051613a3160f11b81840152600060228201527f5461736b73000000000000000000000000000000000000000000000000000000603082015281518082039093018352810190526105ce906109ce90612339565b826001856040516020016109e491815260200190565b60408051601f198184030181529190527e40020120200000000000000000000000000000000000000000000000000000610ba0565b604080516020808201869052818301859052606080830185905283518084038201815260016080850181815260c0860190965290946000949293859391929160a00190803683370190505090508781600081518110610a7a57610a7a612323565b60209081029190910181019190915260408051613a3160f11b928101929092526000602283015266506c617965727360c81b6030830152610abb910161073b565b5050505050505050565b7f629a4c26e296b22a8e0856e9f6ecb2d1008d7e00081111962cd175fa7488e175546000906001600160a01b031680610460573391505090565b604080516001808252818301909252600091602080830190803683370190505090508181600081518110610b3557610b35612323565b60209081029190910181019190915260408051613a3160f11b81840152600060228201527f5461736b73000000000000000000000000000000000000000000000000000000603082015281518082039093018352810190526102fa90610b9a90612339565b82610ed7565b6000610baa610ac5565b9050306001600160a01b03821603610bce57610bc98686868686610f7b565b61075c565b6040517f390baae00000000000000000000000000000000000000000000000000000000081526001600160a01b0382169063390baae090610c1b908990899089908990899060040161239b565b600060405180830381600087803b158015610c3557600080fd5b505af1158015610c49573d6000803e3d6000fd5b50505050505050505050565b600080610c60610ac5565b9050306001600160a01b03821603610c8657610c7e86868686610f97565b91505061068b565b6040517f8c364d590000000000000000000000000000000000000000000000000000000081526001600160a01b03821690638c364d5990610cd19089908990899089906004016123e2565b602060405180830381865afa158015610cee573d6000803e3d6000fd5b505050506040513d601f19601f82011682018060405250810190610c7e9190612411565b6000610d1c610ac5565b9050306001600160a01b03821603610d3b57610bc98686868686610fcd565b6040517f298314fb0000000000000000000000000000000000000000000000000000000081526001600160a01b0382169063298314fb90610c1b908990899089908990899060040161242a565b6060600060606000610d98610ac5565b9050306001600160a01b03821603610dc157610db5878787610fe3565b93509350935050610e4f565b6040517f419b58fd0000000000000000000000000000000000000000000000000000000081526001600160a01b0382169063419b58fd90610e0a908a908a908a9060040161247b565b600060405180830381865afa158015610e27573d6000803e3d6000fd5b505050506040513d6000823e601f3d908101601f19168201604052610db591908101906124e9565b93509350939050565b610e7c60405180606001604052806000815260200160008152602001600081525090565b6020840151604085015160608601516040840152602083015281529392505050565b60006102ab8251603881901b1790565b606081604051602001610ec19190612556565b6040516020818303038152906040529050919050565b6000610ee1610ac5565b9050306001600160a01b03821603610efd576105ce83836110eb565b6040517f505a181d0000000000000000000000000000000000000000000000000000000081526001600160a01b0382169063505a181d90610f449086908690600401612572565b600060405180830381600087803b158015610f5e57600080fd5b505af1158015610f72573d6000803e3d6000fd5b50505050505050565b610f908585610f8a84876110fe565b85611141565b5050505050565b6000610fc4610fa6868661139a565b60ff858116601b0360080285901c16610fbf85876110fe565b6113f0565b95945050505050565b610f908585858585610fde8b611441565b61156f565b6060600060606000610ff48561185e565b9050611001878783611881565b9350600061100e866118ba565b905080156110e05761102088886118f7565b935066ffffffffffffff841667ffffffffffffffff811115611044576110446121a3565b6040519080825280601f01601f19166020018201604052801561106e576020820181803683370190505b5092506020830160005b828160ff1610156110dd5760006110908b8b8461190a565b905060006110ad888460ff166028026038011c64ffffffffff1690565b90506110bc828260008761198a565b6110c681856125a1565b9350505080806110d5906125b4565b915050611078565b50505b505093509350939050565b6102fa82826110f985611441565b611a42565b600080805b8360ff168110156111395761112560ff601b83900360080287901c16836125a1565b915080611131816125d3565b915050611103565b509392505050565b600061114d858561139a565b9050847f8c0b5119d4cec7b284c6b1b39252a03d1e2f2d7451a5895562524c113bb952be858585604051611183939291906125ed565b60405180910390a2613a3160f11b857fffff00000000000000000000000000000000000000000000000000000000000016146111bf5750610362565b60006111ca86611d02565b905060005b81518110156112a95760008282815181106111ec576111ec612323565b602002602001015190506112186004826affffffffffffffffffffff1916611de290919063ffffffff16565b15611296576040517f964f667d000000000000000000000000000000000000000000000000000000008152606082901c9063964f667d90611263908b908b908b908b90600401612620565b600060405180830381600087803b15801561127d57600080fd5b505af1158015611291573d6000803e3d6000fd5b505050505b50806112a1816125d3565b9150506111cf565b506112bd828565ffffffffffff1685611e00565b60005b8151811015610f725760008282815181106112dd576112dd612323565b602002602001015190506113096008826affffffffffffffffffffff1916611de290919063ffffffff16565b15611387576040517fa8ba8721000000000000000000000000000000000000000000000000000000008152606082901c9063a8ba872190611354908b908b908b908b90600401612620565b600060405180830381600087803b15801561136e57600080fd5b505af1158015611382573d6000803e3d6000fd5b505050505b5080611392816125d3565b9150506112c0565b600082826040516020016113af929190612664565b60408051601f1981840301815291905280516020909101207f86425bff6b57326c7859e89024fe4f238ca327a1ae4a230180dd2f0e88aaa7d9189392505050565b600060208210611416576020820484019350602082816114125761141261269f565b0691505b508254600882021b602082900380841115611139576001850154600882021c82179150509392505050565b60408051613a3160f11b60208201527f73746f726500000000000000000000000000000000000000000000000000000060228201527f5461626c657300000000000000000000000000000000000000000000000000006030820152600091016040516020818303038152906040526114b890612339565b82036114e457507e60030220202000000000000000000000000000000000000000000000000000919050565b60408051613a3160f11b60208201527f73746f726500000000000000000000000000000000000000000000000000000060228201527f5461626c6573000000000000000000000000000000000000000000000000000060308201526102ab91611566910160405160208183030381529060405261156090612339565b84611e10565b602060006113f0565b857f8dbb3a9672eebfd3773e72dd9c102393436816d832c7ba9e1e1ac8fcadcac7a9868686866040516115a594939291906126b5565b60405180910390a2613a3160f11b867fffff000000000000000000000000000000000000000000000000000000000000160361075c5760006115e687611d02565b905060005b81518110156116c957600082828151811061160857611608612323565b602002602001015190506116346001826affffffffffffffffffffff1916611de290919063ffffffff16565b156116b6576040517f57066c9c000000000000000000000000000000000000000000000000000000008152606082901c906357066c9c90611683908c908c908c908c908c908c906004016126f4565b600060405180830381600087803b15801561169d57600080fd5b505af11580156116b1573d6000803e3d6000fd5b505050505b50806116c1816125d3565b9150506115eb565b5060006116d6888861139a565b905060006020870190506116ee826000838a51611e2c565b60006116f9856118ba565b111561177d57600061170b8a8a611eec565b878155905060208601915060008060005b611725886118ba565b8160ff1610156117785761173a8d8d8361190a565b92506117558a8260ff166028026038011c64ffffffffff1690565b91506117648360008785611e2c565b61176e82866125a1565b945060010161171c565b505050505b60005b8351811015610c4957600084828151811061179d5761179d612323565b602002602001015190506117c96002826affffffffffffffffffffff1916611de290919063ffffffff16565b1561184b576040517f5b28cdaf000000000000000000000000000000000000000000000000000000008152606082901c90635b28cdaf90611818908e908e908e908e908e908e906004016126f4565b600060405180830381600087803b15801561183257600080fd5b505af1158015611846573d6000803e3d6000fd5b505050505b5080611856816125d3565b915050611780565b6000600861186e6002602061274d565b6118789190612760565b9190911c919050565b6060816000036118a057506040805160208101909152600081526103fe565b60006118ac858561139a565b9050610fc481846000611f42565b600060086001806118cd6002602061274d565b6118d7919061274d565b6118e1919061274d565b6118eb9190612760565b8260ff911c1692915050565b60006103fe6119068484611eec565b5490565b6000838360405160200161191f929190612664565b604051602081830303815290604052805190602001208260f81b7effffffffffffffffffffffffffffffffffffffffffffffffffffffffffffff19167f3b4102da22e32d82fc925482184f16c09fd4281692720b87d124aef6da48a0f1181860001c90509392505050565b81156119fc57602082106119b4576020820484019350602082816119b0576119b061269f565b0691505b81156119fc5760208290036000600019600883021c1990508554600885021b8119845116828216178452508185116119ed575050610362565b50600194909401939283900392015b5b60208310611a1e5783548152600190930192601f19909201916020016119fd565b8215610362576000600019600885021c198251865482169119161782525050505050565b827f0e1f72f429eb97e64878619984a91e687ae91610348b9ff4216782cc96e49d0783604051611a729190612777565b60405180910390a2613a3160f11b837fffff0000000000000000000000000000000000000000000000000000000000001614611aad57505050565b6000611ab884611d02565b905060005b8151811015611b95576000828281518110611ada57611ada612323565b60200260200101519050611b066040826affffffffffffffffffffff1916611de290919063ffffffff16565b15611b82576040517f9faeaf45000000000000000000000000000000000000000000000000000000008152606082901c90639faeaf4590611b4f9089908990899060040161247b565b600060405180830381600087803b158015611b6957600080fd5b505af1158015611b7d573d6000803e3d6000fd5b505050505b5080611b8d816125d3565b915050611abd565b506000611ba2858561139a565b9050611bfb816000611bb38661185e565b67ffffffffffffffff811115611bcb57611bcb6121a3565b6040519080825280601f01601f191660200182016040528015611bf5576020820181803683370190505b50611e00565b6000611c06846118ba565b1115611c27576000611c188686611eec565b9050611c25816020611f65565b505b60005b825181101561075c576000838281518110611c4757611c47612323565b60200260200101519050611c736080826affffffffffffffffffffff1916611de290919063ffffffff16565b15611cef576040517f83b5c95b000000000000000000000000000000000000000000000000000000008152606082901c906383b5c95b90611cbc908a908a908a9060040161247b565b600060405180830381600087803b158015611cd657600080fd5b505af1158015611cea573d6000803e3d6000fd5b505050505b5080611cfa816125d3565b915050611c2a565b60408051600180825281830190925260609160009190602080830190803683370190505090508281600081518110611d3c57611d3c612323565b60209081029190910181019190915260408051613a3160f11b818401527f73746f726500000000000000000000000000000000000000000000000000000060228201527f53746f7265486f6f6b730000000000000000000000000000000000000000000060308201528151808203909301835281019052600090611dcb90611dc390612339565b836000611fa2565b905061068b611ddd8260008451611fdc565b612075565b60008160ff1682611df38560581c90565b1660ff1614905092915050565b6105ce8383602084018451611e2c565b60408051602081018490529081018290526000906060016113af565b8215611ea65760208310611e5657602083048401935060208381611e5257611e5261269f565b0692505b8215611ea65760208390036000600019600884021c1990506008850281811c91508451811c9050811987541682821617875550818311611e97575050610362565b50600194909401939182019190035b5b60208110611ec85781518455600190930192602090910190601f1901611ea7565b8015610362576000600019600883021c198554845182169119161785555050505050565b60008282604051602001611f01929190612664565b60408051601f1981840301815291905280516020909101207f14e2fcc58e58e68ec7edc30c8d50dccc3ce2714a623ec81f46b6a63922d76569189392505050565b60405160208101601f19603f85840101166040528382526111398585858461198a565b60006020611f7483601f6125a1565b611f7e919061278a565b611f8890846125a1565b90505b808310156105ce5760008355600183019250611f8b565b606061068b611fb285858561190a565b611fd584611fc088886118f7565b9060ff166028026038011c64ffffffffff1690565b6000611f42565b6000818311158015611fef575083518211155b612034578383836040517f23230fa300000000000000000000000000000000000000000000000000000000815260040161202b939291906127ac565b60405180910390fd5b6020840161204284826125a1565b90506000612050858561274d565b6fffffffffffffffffffffffffffffffff1660809290921b9190911795945050505050565b606060006103fe83601560006060600061208f8560801c90565b90506fffffffffffffffffffffffffffffffff851660008582816120b5576120b561269f565b04905060405193506020840160208202810160405281855260005b828110156120f0578451871c8252938701936020909101906001016120d0565b50505050509392505050565b60006020828403121561210e57600080fd5b81357fffffffff00000000000000000000000000000000000000000000000000000000811681146103fe57600080fd5b80356001600160a01b038116811461046057600080fd5b60006020828403121561216757600080fd5b6103fe8261213e565b60008060006060848603121561218557600080fd5b61218e8461213e565b95602085013595506040909401359392505050565b634e487b7160e01b600052604160045260246000fd5b604051601f8201601f1916810167ffffffffffffffff811182821017156121e2576121e26121a3565b604052919050565b600067ffffffffffffffff821115612204576122046121a3565b50601f01601f191660200190565b60006020828403121561222457600080fd5b813567ffffffffffffffff81111561223b57600080fd5b8201601f8101841361224c57600080fd5b803561225f61225a826121ea565b6121b9565b81815285602083850101111561227457600080fd5b81602084016020830137600091810160200191909152949350505050565b6000602082840312156122a457600080fd5b5035919050565b60005b838110156122c65781810151838201526020016122ae565b50506000910152565b600081518084526122e78160208601602086016122ab565b601f01601f19169290920160200192915050565b8381526001600160a01b0383166020820152606060408201526000610fc460608301846122cf565b634e487b7160e01b600052603260045260246000fd5b8051602080830151919081101561235a576000198160200360031b1b821691505b50919050565b600081518084526020808501945080840160005b8381101561239057815187529582019590820190600101612374565b509495945050505050565b85815260a0602082015260006123b460a0830187612360565b60ff8616604084015282810360608401526123cf81866122cf565b9150508260808301529695505050505050565b8481526080602082015260006123fb6080830186612360565b60ff949094166040830152506060015292915050565b60006020828403121561242357600080fd5b5051919050565b85815260a06020820152600061244360a0830187612360565b828103604084015261245581876122cf565b9050846060840152828103608084015261246f81856122cf565b98975050505050505050565b8381526060602082015260006124946060830185612360565b9050826040830152949350505050565b600082601f8301126124b557600080fd5b81516124c361225a826121ea565b8181528460208386010111156124d857600080fd5b61068b8260208301602087016122ab565b6000806000606084860312156124fe57600080fd5b835167ffffffffffffffff8082111561251657600080fd5b612522878388016124a4565b945060208601519350604086015191508082111561253f57600080fd5b5061254c868287016124a4565b9150509250925092565b600082516125688184602087016122ab565b9190910192915050565b82815260406020820152600061068b6040830184612360565b634e487b7160e01b600052601160045260246000fd5b808201808211156102ab576102ab61258b565b600060ff821660ff81036125ca576125ca61258b565b60010192915050565b600060001982036125e6576125e661258b565b5060010190565b6060815260006126006060830186612360565b65ffffffffffff85166020840152828103604084015261085081856122cf565b8481526080602082015260006126396080830186612360565b65ffffffffffff85166040840152828103606084015261265981856122cf565b979650505050505050565b82815260006020808301845182860160005b8281101561269257815184529284019290840190600101612676565b5091979650505050505050565b634e487b7160e01b600052601260045260246000fd5b6080815260006126c86080830187612360565b82810360208401526126da81876122cf565b9050846040840152828103606084015261265981856122cf565b86815260c06020820152600061270d60c0830188612360565b828103604084015261271f81886122cf565b9050856060840152828103608084015261273981866122cf565b9150508260a0830152979650505050505050565b818103818111156102ab576102ab61258b565b80820281158282048414176102ab576102ab61258b565b6020815260006103fe6020830184612360565b6000826127a757634e487b7160e01b600052601260045260246000fd5b500490565b6060815260006127bf60608301866122cf565b6020830194909452506040015291905056fea2646970667358221220a39e2b7f7e993b49a6386a92b0d8ddf4a8c13546428bac9c1e76e466ac6477a664736f6c63430008150033",
    "linkReferences": {}
  },
  "methodIdentifiers": {
    "_msgSender()": "119df25f",
    "_msgValue()": "45ec9354",
    "_world()": "e1af802c",
    "addPlayer(address,uint256,uint256)": "c01e38e6",
    "addTask(string)": "67238562",
    "capturePlayer(address)": "3781c50a",
    "completeTask(bytes32)": "7c0390f7",
    "deleteTask(bytes32)": "e64f15a2",
    "getPlayer(address)": "5c12cd4b",
    "movePlayer(address,uint256,uint256)": "1b24c237",
    "resetTask(bytes32)": "ec5c29ce",
    "supportsInterface(bytes4)": "01ffc9a7",
    "uncapturePlayer(address)": "147ceab4"
  },
  "id": 79
}